{"contracts/PropertyRegistry.sol":{"PropertyRegistry":{"abi":[{"inputs":[{"internalType":"address","name":"_rwa","type":"address"}],"stateMutability":"nonpayable","type":"constructor"},{"inputs":[{"internalType":"address","name":"owner","type":"address"}],"name":"OwnableInvalidOwner","type":"error"},{"inputs":[{"internalType":"address","name":"account","type":"address"}],"name":"OwnableUnauthorizedAccount","type":"error"},{"anonymous":false,"inputs":[{"indexed":true,"internalType":"string","name":"assetId","type":"string"},{"indexed":false,"internalType":"uint256","name":"maturity","type":"uint256"},{"indexed":false,"internalType":"uint256","name":"discount","type":"uint256"},{"indexed":false,"internalType":"uint256","name":"redemption","type":"uint256"}],"name":"AssetConfigured","type":"event"},{"anonymous":false,"inputs":[{"indexed":true,"internalType":"string","name":"assetId","type":"string"},{"indexed":true,"internalType":"address","name":"user","type":"address"},{"indexed":false,"internalType":"uint256","name":"tokens","type":"uint256"},{"indexed":false,"internalType":"uint256","name":"stableOut","type":"uint256"}],"name":"EarlyCashOut","type":"event"},{"anonymous":false,"inputs":[{"indexed":true,"internalType":"address","name":"previousOwner","type":"address"},{"indexed":true,"internalType":"address","name":"newOwner","type":"address"}],"name":"OwnershipTransferred","type":"event"},{"anonymous":false,"inputs":[{"indexed":true,"internalType":"string","name":"assetId","type":"string"},{"indexed":true,"internalType":"address","name":"user","type":"address"},{"indexed":false,"internalType":"uint256","name":"tokens","type":"uint256"},{"indexed":false,"internalType":"uint256","name":"stableOut","type":"uint256"}],"name":"Redeemed","type":"event"},{"anonymous":false,"inputs":[{"indexed":true,"internalType":"string","name":"assetId","type":"string"},{"indexed":true,"internalType":"address","name":"user","type":"address"},{"indexed":false,"internalType":"uint256","name":"amount","type":"uint256"}],"name":"Stake","type":"event"},{"anonymous":false,"inputs":[{"indexed":true,"internalType":"string","name":"assetId","type":"string"},{"indexed":true,"internalType":"address","name":"user","type":"address"},{"indexed":false,"internalType":"uint256","name":"amount","type":"uint256"}],"name":"Unstake","type":"event"},{"anonymous":false,"inputs":[{"indexed":true,"internalType":"string","name":"assetId","type":"string"},{"indexed":true,"internalType":"address","name":"user","type":"address"},{"indexed":false,"internalType":"uint256","name":"amount","type":"uint256"}],"name":"YieldClaimed","type":"event"},{"inputs":[{"internalType":"string","name":"","type":"string"},{"internalType":"address","name":"","type":"address"}],"name":"balances","outputs":[{"internalType":"uint256","name":"","type":"uint256"}],"stateMutability":"view","type":"function"},{"inputs":[{"internalType":"string","name":"assetId","type":"string"}],"name":"claimAssetYield","outputs":[],"stateMutability":"nonpayable","type":"function"},{"inputs":[{"internalType":"string","name":"assetId","type":"string"},{"internalType":"uint256","name":"maturity","type":"uint256"},{"internalType":"uint256","name":"discount","type":"uint256"},{"internalType":"uint256","name":"redemption","type":"uint256"}],"name":"configureAsset","outputs":[],"stateMutability":"nonpayable","type":"function"},{"inputs":[{"internalType":"string","name":"assetId","type":"string"},{"internalType":"uint256","name":"amount","type":"uint256"}],"name":"earlyCashOut","outputs":[{"internalType":"uint256","name":"stableOut","type":"uint256"}],"stateMutability":"nonpayable","type":"function"},{"inputs":[{"internalType":"string","name":"assetId","type":"string"}],"name":"getAssetDetails","outputs":[{"internalType":"uint256","name":"totalSupply","type":"uint256"},{"internalType":"uint256","name":"tokenPrice","type":"uint256"},{"internalType":"uint256","name":"tokensSold","type":"uint256"},{"internalType":"uint256","name":"fundingGoal","type":"uint256"},{"internalType":"bool","name":"isActive","type":"bool"},{"internalType":"uint256","name":"maturity","type":"uint256"},{"internalType":"uint256","name":"discount","type":"uint256"},{"internalType":"uint256","name":"redemption","type":"uint256"}],"stateMutability":"view","type":"function"},{"inputs":[{"internalType":"string","name":"assetId","type":"string"},{"internalType":"address","name":"user","type":"address"}],"name":"getAssetRewards","outputs":[{"internalType":"uint256","name":"","type":"uint256"}],"stateMutability":"view","type":"function"},{"inputs":[{"internalType":"string","name":"assetId","type":"string"},{"internalType":"address","name":"user","type":"address"}],"name":"getStakedAssetBalance","outputs":[{"internalType":"uint256","name":"","type":"uint256"}],"stateMutability":"view","type":"function"},{"inputs":[{"internalType":"string","name":"assetId","type":"string"},{"internalType":"address","name":"user","type":"address"}],"name":"getUserAssetBalance","outputs":[{"internalType":"uint256","name":"","type":"uint256"}],"stateMutability":"view","type":"function"},{"inputs":[{"internalType":"string","name":"","type":"string"}],"name":"metas","outputs":[{"internalType":"uint256","name":"maturityTimestamp","type":"uint256"},{"internalType":"uint256","name":"discountRate","type":"uint256"},{"internalType":"uint256","name":"redemptionRate","type":"uint256"}],"stateMutability":"view","type":"function"},{"inputs":[],"name":"owner","outputs":[{"internalType":"address","name":"","type":"address"}],"stateMutability":"view","type":"function"},{"inputs":[{"internalType":"string","name":"assetId","type":"string"},{"internalType":"uint256","name":"amount","type":"uint256"}],"name":"redeem","outputs":[{"internalType":"uint256","name":"stableOut","type":"uint256"}],"stateMutability":"nonpayable","type":"function"},{"inputs":[],"name":"renounceOwnership","outputs":[],"stateMutability":"nonpayable","type":"function"},{"inputs":[{"internalType":"string","name":"","type":"string"},{"internalType":"address","name":"","type":"address"}],"name":"rewards","outputs":[{"internalType":"uint256","name":"","type":"uint256"}],"stateMutability":"view","type":"function"},{"inputs":[],"name":"rwa","outputs":[{"internalType":"contract IERC20","name":"","type":"address"}],"stateMutability":"view","type":"function"},{"inputs":[{"internalType":"string","name":"assetId","type":"string"},{"internalType":"uint256","name":"amount","type":"uint256"}],"name":"stakeAsset","outputs":[],"stateMutability":"nonpayable","type":"function"},{"inputs":[{"internalType":"string","name":"","type":"string"},{"internalType":"address","name":"","type":"address"}],"name":"staked","outputs":[{"internalType":"uint256","name":"","type":"uint256"}],"stateMutability":"view","type":"function"},{"inputs":[{"internalType":"address","name":"newOwner","type":"address"}],"name":"transferOwnership","outputs":[],"stateMutability":"nonpayable","type":"function"},{"inputs":[{"internalType":"string","name":"assetId","type":"string"},{"internalType":"uint256","name":"amount","type":"uint256"}],"name":"unstakeAsset","outputs":[],"stateMutability":"nonpayable","type":"function"},{"stateMutability":"payable","type":"receive"}],"evm":{"bytecode":{"linkReferences":{},"object":"60a060405234801561001057600080fd5b506040516115d93803806115d983398101604081905261002f916100c0565b338061005557604051631e4fbdf760e01b81526000600482015260240160405180910390fd5b61005e81610070565b506001600160a01b03166080526100f0565b600080546001600160a01b038381166001600160a01b0319831681178455604051919092169283917f8be0079c531659141344cd1fd0a4f28419497f9722a3daafe3b4186f6b6457e09190a35050565b6000602082840312156100d257600080fd5b81516001600160a01b03811681146100e957600080fd5b9392505050565b6080516114ab61012e600039600081816102d4015281816106b5015281816109a101528181610b6201528181610c7f0152610f2501526114ab6000f3fe60806040526004361061010d5760003560e01c8063b1b86b1311610095578063dc442d5c11610064578063dc442d5c146103bc578063e39aabc1146103dc578063eb042ac0146103fc578063ec47bfd714610444578063f2fde38b1461046457600080fd5b8063b1b86b13146102f6578063b5ebff2714610316578063b64a202e1461037c578063daeff6531461039c57600080fd5b806368fbe23e116100dc57806368fbe23e146101d6578063715018a6146102335780638892ebce146102485780638da5cb5b1461029057806395e4b251146102c257600080fd5b8063073171aa146101195780632714288d1461013b578063620b7ef5146101965780636837e0f9146101b657600080fd5b3661011457005b600080fd5b34801561012557600080fd5b506101396101343660046110fc565b610484565b005b34801561014757600080fd5b50610183610156366004611215565b81516020818401810180516003825292820194820194909420919093529091526000908152604090205481565b6040519081526020015b60405180910390f35b3480156101a257600080fd5b506101836101b1366004611263565b61053c565b3480156101c257600080fd5b506101836101d13660046112b7565b610580565b3480156101e257600080fd5b506101f66101f1366004611303565b6107b4565b6040805198895260208901979097529587019490945260608601929092521515608085015260a084015260c083015260e08201526101000161018d565b34801561023f57600080fd5b5061013961082e565b34801561025457600080fd5b50610183610263366004611215565b81516020818401810180516002825292820194820194909420919093529091526000908152604090205481565b34801561029c57600080fd5b506000546001600160a01b03165b6040516001600160a01b03909116815260200161018d565b3480156102ce57600080fd5b506102aa7f000000000000000000000000000000000000000000000000000000000000000081565b34801561030257600080fd5b506101836103113660046112b7565b610842565b34801561032257600080fd5b50610361610331366004611345565b80516020818301810180516001808352938301929094019190912092905281549082015460029092015490919083565b6040805193845260208401929092529082015260600161018d565b34801561038857600080fd5b50610139610397366004611303565b610a9f565b3480156103a857600080fd5b506101396103b73660046112b7565b610c22565b3480156103c857600080fd5b506101836103d7366004611263565b610e14565b3480156103e857600080fd5b506101396103f73660046112b7565b610e28565b34801561040857600080fd5b50610183610417366004611215565b81516020818401810180516004825292820194820194909420919093529091526000908152604090205481565b34801561045057600080fd5b5061018361045f366004611263565b610fe4565b34801561047057600080fd5b5061013961047f366004611382565b610ff8565b61048c611036565b604051806060016040528084815260200183815260200182815250600186866040516104b99291906113a4565b9081526040805160209281900383018120845181559284015160018401559201516002909101556104ed90869086906113a4565b6040805191829003822085835260208301859052908201839052907f81dca300df4b9fabfe23dbc32fccbad5fabdd70e94fc83b3a1e7d536046d7c4c9060600160405180910390a25050505050565b6000600384846040516105509291906113a4565b908152604080519182900360209081019092206001600160a01b0385166000908152925290205490509392505050565b600080600185856040516105959291906113a4565b90815260408051918290036020908101832060608401835280548452600181015491840191909152600201549082015290508215801590610603575082600286866040516105e49291906113a4565b9081526040805160209281900383019020336000908152925290205410155b6106285760405162461bcd60e51b815260040161061f906113b4565b60405180910390fd5b6000606482602001518561063c91906113ee565b610646919061140b565b9050610652818561142d565b925083600287876040516106679291906113a4565b908152604080516020928190038301902033600090815292528120805490919061069290849061142d565b909155505060405163a9059cbb60e01b815261dead6004820152602481018590527f00000000000000000000000000000000000000000000000000000000000000006001600160a01b03169063a9059cbb906044016020604051808303816000875af1158015610706573d6000803e3d6000fd5b505050506040513d601f19601f8201168201806040525081019061072a9190611440565b50604051339084156108fc029085906000818181858888f19350505050158015610758573d6000803e3d6000fd5b50604051339061076b90889088906113a4565b6040805191829003822087835260208301879052917f1b3cfe7d4a17a7532b1805cac487a7ea05b1a5c711b52e029faf1bb5bdd1b666910160405180910390a350509392505050565b600080600080600080600080600060018b8b6040516107d49291906113a4565b90815260408051918290036020908101832060608401835280548085526001808301549386018490526002909201549490930184905260009c508c9b508b9a508a9950975090955093509150509295985092959890939650565b610836611036565b6108406000611063565b565b600080600185856040516108579291906113a4565b90815260408051602092819003830181206060820183528054808352600182015494830194909452600201549181019190915291504210156108c95760405162461bcd60e51b815260206004820152600b60248201526a1b9bdd081b585d1d5c995960aa1b604482015260640161061f565b600083118015610906575082600286866040516108e79291906113a4565b9081526040805160209281900383019020336000908152925290205410155b6109225760405162461bcd60e51b815260040161061f906113b4565b606481604001518461093491906113ee565b61093e919061140b565b915082600286866040516109539291906113a4565b908152604080516020928190038301902033600090815292528120805490919061097e90849061142d565b909155505060405163a9059cbb60e01b815261dead6004820152602481018490527f00000000000000000000000000000000000000000000000000000000000000006001600160a01b03169063a9059cbb906044016020604051808303816000875af11580156109f2573d6000803e3d6000fd5b505050506040513d601f19601f82011682018060405250810190610a169190611440565b50604051339083156108fc029084906000818181858888f19350505050158015610a44573d6000803e3d6000fd5b506040513390610a5790879087906113a4565b6040805191829003822086835260208301869052917f6b7bef7b51625ffda642a0d7b6edc9e976cfb79ba144d2b51e627988af779f94910160405180910390a3509392505050565b600060048383604051610ab39291906113a4565b90815260408051602092819003830190203360009081529252902054905080610b0b5760405162461bcd60e51b815260206004820152600a6024820152696e6f207265776172647360b01b604482015260640161061f565b600060048484604051610b1f9291906113a4565b908152604080516020928190038301812033600081815291909452919091209290925563a9059cbb60e01b82526004820152602481018290526001600160a01b037f0000000000000000000000000000000000000000000000000000000000000000169063a9059cbb906044016020604051808303816000875af1158015610bab573d6000803e3d6000fd5b505050506040513d601f19601f82011682018060405250810190610bcf9190611440565b506040513390610be290859085906113a4565b604051908190038120838252907fa4a7616014dca5d8165351425cc72d1016c2c06b97f653f4b4ef3a64b6e01ef8906020015b60405180910390a3505050565b60008111610c5d5760405162461bcd60e51b81526020600482015260086024820152670616d6f756e743d360c41b604482015260640161061f565b6040516323b872dd60e01b8152336004820152306024820152604481018290527f00000000000000000000000000000000000000000000000000000000000000006001600160a01b0316906323b872dd906064016020604051808303816000875af1158015610cd0573d6000803e3d6000fd5b505050506040513d601f19601f82011682018060405250810190610cf49190611440565b508060028484604051610d089291906113a4565b9081526040805160209281900383019020336000908152925281208054909190610d33908490611462565b925050819055508060038484604051610d4d9291906113a4565b9081526040805160209281900383019020336000908152925281208054909190610d78908490611462565b90915550610d89905060648261140b565b60048484604051610d9b9291906113a4565b9081526040805160209281900383019020336000908152925281208054909190610dc6908490611462565b90915550506040513390610ddd90859085906113a4565b604051908190038120838252907fb28dead8027f1e81117e29275c8111d4fef0dbafc7b4e32a0952fd186eeb67a590602001610c15565b6000600284846040516105509291906113a4565b600081118015610e6557508060038484604051610e469291906113a4565b9081526040805160209281900383019020336000908152925290205410155b610e815760405162461bcd60e51b815260040161061f906113b4565b8060038484604051610e949291906113a4565b9081526040805160209281900383019020336000908152925281208054909190610ebf90849061142d565b925050819055508060028484604051610ed99291906113a4565b9081526040805160209281900383019020336000908152925281208054909190610f0490849061142d565b909155505060405163a9059cbb60e01b8152336004820152602481018290527f00000000000000000000000000000000000000000000000000000000000000006001600160a01b03169063a9059cbb906044016020604051808303816000875af1158015610f76573d6000803e3d6000fd5b505050506040513d601f19601f82011682018060405250810190610f9a9190611440565b506040513390610fad90859085906113a4565b604051908190038120838252907fabff4485adc7088e008d091c07744b6153e65e8f7ce2728fe3c3dbd95f743fd190602001610c15565b6000600484846040516105509291906113a4565b611000611036565b6001600160a01b03811661102a57604051631e4fbdf760e01b81526000600482015260240161061f565b61103381611063565b50565b6000546001600160a01b031633146108405760405163118cdaa760e01b815233600482015260240161061f565b600080546001600160a01b038381166001600160a01b0319831681178455604051919092169283917f8be0079c531659141344cd1fd0a4f28419497f9722a3daafe3b4186f6b6457e09190a35050565b60008083601f8401126110c557600080fd5b50813567ffffffffffffffff8111156110dd57600080fd5b6020830191508360208285010111156110f557600080fd5b9250929050565b60008060008060006080868803121561111457600080fd5b853567ffffffffffffffff81111561112b57600080fd5b611137888289016110b3565b9099909850602088013597604081013597506060013595509350505050565b634e487b7160e01b600052604160045260246000fd5b600082601f83011261117d57600080fd5b813567ffffffffffffffff8082111561119857611198611156565b604051601f8301601f19908116603f011681019082821181831017156111c0576111c0611156565b816040528381528660208588010111156111d957600080fd5b836020870160208301376000602085830101528094505050505092915050565b80356001600160a01b038116811461121057600080fd5b919050565b6000806040838503121561122857600080fd5b823567ffffffffffffffff81111561123f57600080fd5b61124b8582860161116c565b92505061125a602084016111f9565b90509250929050565b60008060006040848603121561127857600080fd5b833567ffffffffffffffff81111561128f57600080fd5b61129b868287016110b3565b90945092506112ae9050602085016111f9565b90509250925092565b6000806000604084860312156112cc57600080fd5b833567ffffffffffffffff8111156112e357600080fd5b6112ef868287016110b3565b909790965060209590950135949350505050565b6000806020838503121561131657600080fd5b823567ffffffffffffffff81111561132d57600080fd5b611339858286016110b3565b90969095509350505050565b60006020828403121561135757600080fd5b813567ffffffffffffffff81111561136e57600080fd5b61137a8482850161116c565b949350505050565b60006020828403121561139457600080fd5b61139d826111f9565b9392505050565b8183823760009101908152919050565b6020808252600a908201526918985908185b5bdd5b9d60b21b604082015260600190565b634e487b7160e01b600052601160045260246000fd5b8082028115828204841417611405576114056113d8565b92915050565b60008261142857634e487b7160e01b600052601260045260246000fd5b500490565b81810381811115611405576114056113d8565b60006020828403121561145257600080fd5b8151801515811461139d57600080fd5b80820180821115611405576114056113d856fea2646970667358221220b70c26b9503eb346e28d19b9eeb164e91db6434dc8c5c3ea7e50c69e4d87c98064736f6c63430008140033","opcodes":"PUSH1 0xA0 PUSH1 0x40 MSTORE CALLVALUE DUP1 ISZERO PUSH2 0x10 JUMPI PUSH1 0x0 DUP1 REVERT JUMPDEST POP PUSH1 0x40 MLOAD PUSH2 0x15D9 CODESIZE SUB DUP1 PUSH2 0x15D9 DUP4 CODECOPY DUP2 ADD PUSH1 0x40 DUP2 SWAP1 MSTORE PUSH2 0x2F SWAP2 PUSH2 0xC0 JUMP JUMPDEST CALLER DUP1 PUSH2 0x55 JUMPI PUSH1 0x40 MLOAD PUSH4 0x1E4FBDF7 PUSH1 0xE0 SHL DUP2 MSTORE PUSH1 0x0 PUSH1 0x4 DUP3 ADD MSTORE PUSH1 0x24 ADD PUSH1 0x40 MLOAD DUP1 SWAP2 SUB SWAP1 REVERT JUMPDEST PUSH2 0x5E DUP2 PUSH2 0x70 JUMP JUMPDEST POP PUSH1 0x1 PUSH1 0x1 PUSH1 0xA0 SHL SUB AND PUSH1 0x80 MSTORE PUSH2 0xF0 JUMP JUMPDEST PUSH1 0x0 DUP1 SLOAD PUSH1 0x1 PUSH1 0x1 PUSH1 0xA0 SHL SUB DUP4 DUP2 AND PUSH1 0x1 PUSH1 0x1 PUSH1 0xA0 SHL SUB NOT DUP4 AND DUP2 OR DUP5 SSTORE PUSH1 0x40 MLOAD SWAP2 SWAP1 SWAP3 AND SWAP3 DUP4 SWAP2 PUSH32 0x8BE0079C531659141344CD1FD0A4F28419497F9722A3DAAFE3B4186F6B6457E0 SWAP2 SWAP1 LOG3 POP POP JUMP JUMPDEST PUSH1 0x0 PUSH1 0x20 DUP3 DUP5 SUB SLT ISZERO PUSH2 0xD2 JUMPI PUSH1 0x0 DUP1 REVERT JUMPDEST DUP2 MLOAD PUSH1 0x1 PUSH1 0x1 PUSH1 0xA0 SHL SUB DUP2 AND DUP2 EQ PUSH2 0xE9 JUMPI PUSH1 0x0 DUP1 REVERT JUMPDEST SWAP4 SWAP3 POP POP POP JUMP JUMPDEST PUSH1 0x80 MLOAD PUSH2 0x14AB PUSH2 0x12E PUSH1 0x0 CODECOPY PUSH1 0x0 DUP2 DUP2 PUSH2 0x2D4 ADD MSTORE DUP2 DUP2 PUSH2 0x6B5 ADD MSTORE DUP2 DUP2 PUSH2 0x9A1 ADD MSTORE DUP2 DUP2 PUSH2 0xB62 ADD MSTORE DUP2 DUP2 PUSH2 0xC7F ADD MSTORE PUSH2 0xF25 ADD MSTORE PUSH2 0x14AB PUSH1 0x0 RETURN INVALID PUSH1 0x80 PUSH1 0x40 MSTORE PUSH1 0x4 CALLDATASIZE LT PUSH2 0x10D JUMPI PUSH1 0x0 CALLDATALOAD PUSH1 0xE0 SHR DUP1 PUSH4 0xB1B86B13 GT PUSH2 0x95 JUMPI DUP1 PUSH4 0xDC442D5C GT PUSH2 0x64 JUMPI DUP1 PUSH4 0xDC442D5C EQ PUSH2 0x3BC JUMPI DUP1 PUSH4 0xE39AABC1 EQ PUSH2 0x3DC JUMPI DUP1 PUSH4 0xEB042AC0 EQ PUSH2 0x3FC JUMPI DUP1 PUSH4 0xEC47BFD7 EQ PUSH2 0x444 JUMPI DUP1 PUSH4 0xF2FDE38B EQ PUSH2 0x464 JUMPI PUSH1 0x0 DUP1 REVERT JUMPDEST DUP1 PUSH4 0xB1B86B13 EQ PUSH2 0x2F6 JUMPI DUP1 PUSH4 0xB5EBFF27 EQ PUSH2 0x316 JUMPI DUP1 PUSH4 0xB64A202E EQ PUSH2 0x37C JUMPI DUP1 PUSH4 0xDAEFF653 EQ PUSH2 0x39C JUMPI PUSH1 0x0 DUP1 REVERT JUMPDEST DUP1 PUSH4 0x68FBE23E GT PUSH2 0xDC JUMPI DUP1 PUSH4 0x68FBE23E EQ PUSH2 0x1D6 JUMPI DUP1 PUSH4 0x715018A6 EQ PUSH2 0x233 JUMPI DUP1 PUSH4 0x8892EBCE EQ PUSH2 0x248 JUMPI DUP1 PUSH4 0x8DA5CB5B EQ PUSH2 0x290 JUMPI DUP1 PUSH4 0x95E4B251 EQ PUSH2 0x2C2 JUMPI PUSH1 0x0 DUP1 REVERT JUMPDEST DUP1 PUSH4 0x73171AA EQ PUSH2 0x119 JUMPI DUP1 PUSH4 0x2714288D EQ PUSH2 0x13B JUMPI DUP1 PUSH4 0x620B7EF5 EQ PUSH2 0x196 JUMPI DUP1 PUSH4 0x6837E0F9 EQ PUSH2 0x1B6 JUMPI PUSH1 0x0 DUP1 REVERT JUMPDEST CALLDATASIZE PUSH2 0x114 JUMPI STOP JUMPDEST PUSH1 0x0 DUP1 REVERT JUMPDEST CALLVALUE DUP1 ISZERO PUSH2 0x125 JUMPI PUSH1 0x0 DUP1 REVERT JUMPDEST POP PUSH2 0x139 PUSH2 0x134 CALLDATASIZE PUSH1 0x4 PUSH2 0x10FC JUMP JUMPDEST PUSH2 0x484 JUMP JUMPDEST STOP JUMPDEST CALLVALUE DUP1 ISZERO PUSH2 0x147 JUMPI PUSH1 0x0 DUP1 REVERT JUMPDEST POP PUSH2 0x183 PUSH2 0x156 CALLDATASIZE PUSH1 0x4 PUSH2 0x1215 JUMP JUMPDEST DUP2 MLOAD PUSH1 0x20 DUP2 DUP5 ADD DUP2 ADD DUP1 MLOAD PUSH1 0x3 DUP3 MSTORE SWAP3 DUP3 ADD SWAP5 DUP3 ADD SWAP5 SWAP1 SWAP5 KECCAK256 SWAP2 SWAP1 SWAP4 MSTORE SWAP1 SWAP2 MSTORE PUSH1 0x0 SWAP1 DUP2 MSTORE PUSH1 0x40 SWAP1 KECCAK256 SLOAD DUP2 JUMP JUMPDEST PUSH1 0x40 MLOAD SWAP1 DUP2 MSTORE PUSH1 0x20 ADD JUMPDEST PUSH1 0x40 MLOAD DUP1 SWAP2 SUB SWAP1 RETURN JUMPDEST CALLVALUE DUP1 ISZERO PUSH2 0x1A2 JUMPI PUSH1 0x0 DUP1 REVERT JUMPDEST POP PUSH2 0x183 PUSH2 0x1B1 CALLDATASIZE PUSH1 0x4 PUSH2 0x1263 JUMP JUMPDEST PUSH2 0x53C JUMP JUMPDEST CALLVALUE DUP1 ISZERO PUSH2 0x1C2 JUMPI PUSH1 0x0 DUP1 REVERT JUMPDEST POP PUSH2 0x183 PUSH2 0x1D1 CALLDATASIZE PUSH1 0x4 PUSH2 0x12B7 JUMP JUMPDEST PUSH2 0x580 JUMP JUMPDEST CALLVALUE DUP1 ISZERO PUSH2 0x1E2 JUMPI PUSH1 0x0 DUP1 REVERT JUMPDEST POP PUSH2 0x1F6 PUSH2 0x1F1 CALLDATASIZE PUSH1 0x4 PUSH2 0x1303 JUMP JUMPDEST PUSH2 0x7B4 JUMP JUMPDEST PUSH1 0x40 DUP1 MLOAD SWAP9 DUP10 MSTORE PUSH1 0x20 DUP10 ADD SWAP8 SWAP1 SWAP8 MSTORE SWAP6 DUP8 ADD SWAP5 SWAP1 SWAP5 MSTORE PUSH1 0x60 DUP7 ADD SWAP3 SWAP1 SWAP3 MSTORE ISZERO ISZERO PUSH1 0x80 DUP6 ADD MSTORE PUSH1 0xA0 DUP5 ADD MSTORE PUSH1 0xC0 DUP4 ADD MSTORE PUSH1 0xE0 DUP3 ADD MSTORE PUSH2 0x100 ADD PUSH2 0x18D JUMP JUMPDEST CALLVALUE DUP1 ISZERO PUSH2 0x23F JUMPI PUSH1 0x0 DUP1 REVERT JUMPDEST POP PUSH2 0x139 PUSH2 0x82E JUMP JUMPDEST CALLVALUE DUP1 ISZERO PUSH2 0x254 JUMPI PUSH1 0x0 DUP1 REVERT JUMPDEST POP PUSH2 0x183 PUSH2 0x263 CALLDATASIZE PUSH1 0x4 PUSH2 0x1215 JUMP JUMPDEST DUP2 MLOAD PUSH1 0x20 DUP2 DUP5 ADD DUP2 ADD DUP1 MLOAD PUSH1 0x2 DUP3 MSTORE SWAP3 DUP3 ADD SWAP5 DUP3 ADD SWAP5 SWAP1 SWAP5 KECCAK256 SWAP2 SWAP1 SWAP4 MSTORE SWAP1 SWAP2 MSTORE PUSH1 0x0 SWAP1 DUP2 MSTORE PUSH1 0x40 SWAP1 KECCAK256 SLOAD DUP2 JUMP JUMPDEST CALLVALUE DUP1 ISZERO PUSH2 0x29C JUMPI PUSH1 0x0 DUP1 REVERT JUMPDEST POP PUSH1 0x0 SLOAD PUSH1 0x1 PUSH1 0x1 PUSH1 0xA0 SHL SUB AND JUMPDEST PUSH1 0x40 MLOAD PUSH1 0x1 PUSH1 0x1 PUSH1 0xA0 SHL SUB SWAP1 SWAP2 AND DUP2 MSTORE PUSH1 0x20 ADD PUSH2 0x18D JUMP JUMPDEST CALLVALUE DUP1 ISZERO PUSH2 0x2CE JUMPI PUSH1 0x0 DUP1 REVERT JUMPDEST POP PUSH2 0x2AA PUSH32 0x0 DUP2 JUMP JUMPDEST CALLVALUE DUP1 ISZERO PUSH2 0x302 JUMPI PUSH1 0x0 DUP1 REVERT JUMPDEST POP PUSH2 0x183 PUSH2 0x311 CALLDATASIZE PUSH1 0x4 PUSH2 0x12B7 JUMP JUMPDEST PUSH2 0x842 JUMP JUMPDEST CALLVALUE DUP1 ISZERO PUSH2 0x322 JUMPI PUSH1 0x0 DUP1 REVERT JUMPDEST POP PUSH2 0x361 PUSH2 0x331 CALLDATASIZE PUSH1 0x4 PUSH2 0x1345 JUMP JUMPDEST DUP1 MLOAD PUSH1 0x20 DUP2 DUP4 ADD DUP2 ADD DUP1 MLOAD PUSH1 0x1 DUP1 DUP4 MSTORE SWAP4 DUP4 ADD SWAP3 SWAP1 SWAP5 ADD SWAP2 SWAP1 SWAP2 KECCAK256 SWAP3 SWAP1 MSTORE DUP2 SLOAD SWAP1 DUP3 ADD SLOAD PUSH1 0x2 SWAP1 SWAP3 ADD SLOAD SWAP1 SWAP2 SWAP1 DUP4 JUMP JUMPDEST PUSH1 0x40 DUP1 MLOAD SWAP4 DUP5 MSTORE PUSH1 0x20 DUP5 ADD SWAP3 SWAP1 SWAP3 MSTORE SWAP1 DUP3 ADD MSTORE PUSH1 0x60 ADD PUSH2 0x18D JUMP JUMPDEST CALLVALUE DUP1 ISZERO PUSH2 0x388 JUMPI PUSH1 0x0 DUP1 REVERT JUMPDEST POP PUSH2 0x139 PUSH2 0x397 CALLDATASIZE PUSH1 0x4 PUSH2 0x1303 JUMP JUMPDEST PUSH2 0xA9F JUMP JUMPDEST CALLVALUE DUP1 ISZERO PUSH2 0x3A8 JUMPI PUSH1 0x0 DUP1 REVERT JUMPDEST POP PUSH2 0x139 PUSH2 0x3B7 CALLDATASIZE PUSH1 0x4 PUSH2 0x12B7 JUMP JUMPDEST PUSH2 0xC22 JUMP JUMPDEST CALLVALUE DUP1 ISZERO PUSH2 0x3C8 JUMPI PUSH1 0x0 DUP1 REVERT JUMPDEST POP PUSH2 0x183 PUSH2 0x3D7 CALLDATASIZE PUSH1 0x4 PUSH2 0x1263 JUMP JUMPDEST PUSH2 0xE14 JUMP JUMPDEST CALLVALUE DUP1 ISZERO PUSH2 0x3E8 JUMPI PUSH1 0x0 DUP1 REVERT JUMPDEST POP PUSH2 0x139 PUSH2 0x3F7 CALLDATASIZE PUSH1 0x4 PUSH2 0x12B7 JUMP JUMPDEST PUSH2 0xE28 JUMP JUMPDEST CALLVALUE DUP1 ISZERO PUSH2 0x408 JUMPI PUSH1 0x0 DUP1 REVERT JUMPDEST POP PUSH2 0x183 PUSH2 0x417 CALLDATASIZE PUSH1 0x4 PUSH2 0x1215 JUMP JUMPDEST DUP2 MLOAD PUSH1 0x20 DUP2 DUP5 ADD DUP2 ADD DUP1 MLOAD PUSH1 0x4 DUP3 MSTORE SWAP3 DUP3 ADD SWAP5 DUP3 ADD SWAP5 SWAP1 SWAP5 KECCAK256 SWAP2 SWAP1 SWAP4 MSTORE SWAP1 SWAP2 MSTORE PUSH1 0x0 SWAP1 DUP2 MSTORE PUSH1 0x40 SWAP1 KECCAK256 SLOAD DUP2 JUMP JUMPDEST CALLVALUE DUP1 ISZERO PUSH2 0x450 JUMPI PUSH1 0x0 DUP1 REVERT JUMPDEST POP PUSH2 0x183 PUSH2 0x45F CALLDATASIZE PUSH1 0x4 PUSH2 0x1263 JUMP JUMPDEST PUSH2 0xFE4 JUMP JUMPDEST CALLVALUE DUP1 ISZERO PUSH2 0x470 JUMPI PUSH1 0x0 DUP1 REVERT JUMPDEST POP PUSH2 0x139 PUSH2 0x47F CALLDATASIZE PUSH1 0x4 PUSH2 0x1382 JUMP JUMPDEST PUSH2 0xFF8 JUMP JUMPDEST PUSH2 0x48C PUSH2 0x1036 JUMP JUMPDEST PUSH1 0x40 MLOAD DUP1 PUSH1 0x60 ADD PUSH1 0x40 MSTORE DUP1 DUP5 DUP2 MSTORE PUSH1 0x20 ADD DUP4 DUP2 MSTORE PUSH1 0x20 ADD DUP3 DUP2 MSTORE POP PUSH1 0x1 DUP7 DUP7 PUSH1 0x40 MLOAD PUSH2 0x4B9 SWAP3 SWAP2 SWAP1 PUSH2 0x13A4 JUMP JUMPDEST SWAP1 DUP2 MSTORE PUSH1 0x40 DUP1 MLOAD PUSH1 0x20 SWAP3 DUP2 SWAP1 SUB DUP4 ADD DUP2 KECCAK256 DUP5 MLOAD DUP2 SSTORE SWAP3 DUP5 ADD MLOAD PUSH1 0x1 DUP5 ADD SSTORE SWAP3 ADD MLOAD PUSH1 0x2 SWAP1 SWAP2 ADD SSTORE PUSH2 0x4ED SWAP1 DUP7 SWAP1 DUP7 SWAP1 PUSH2 0x13A4 JUMP JUMPDEST PUSH1 0x40 DUP1 MLOAD SWAP2 DUP3 SWAP1 SUB DUP3 KECCAK256 DUP6 DUP4 MSTORE PUSH1 0x20 DUP4 ADD DUP6 SWAP1 MSTORE SWAP1 DUP3 ADD DUP4 SWAP1 MSTORE SWAP1 PUSH32 0x81DCA300DF4B9FABFE23DBC32FCCBAD5FABDD70E94FC83B3A1E7D536046D7C4C SWAP1 PUSH1 0x60 ADD PUSH1 0x40 MLOAD DUP1 SWAP2 SUB SWAP1 LOG2 POP POP POP POP POP JUMP JUMPDEST PUSH1 0x0 PUSH1 0x3 DUP5 DUP5 PUSH1 0x40 MLOAD PUSH2 0x550 SWAP3 SWAP2 SWAP1 PUSH2 0x13A4 JUMP JUMPDEST SWAP1 DUP2 MSTORE PUSH1 0x40 DUP1 MLOAD SWAP2 DUP3 SWAP1 SUB PUSH1 0x20 SWAP1 DUP2 ADD SWAP1 SWAP3 KECCAK256 PUSH1 0x1 PUSH1 0x1 PUSH1 0xA0 SHL SUB DUP6 AND PUSH1 0x0 SWAP1 DUP2 MSTORE SWAP3 MSTORE SWAP1 KECCAK256 SLOAD SWAP1 POP SWAP4 SWAP3 POP POP POP JUMP JUMPDEST PUSH1 0x0 DUP1 PUSH1 0x1 DUP6 DUP6 PUSH1 0x40 MLOAD PUSH2 0x595 SWAP3 SWAP2 SWAP1 PUSH2 0x13A4 JUMP JUMPDEST SWAP1 DUP2 MSTORE PUSH1 0x40 DUP1 MLOAD SWAP2 DUP3 SWAP1 SUB PUSH1 0x20 SWAP1 DUP2 ADD DUP4 KECCAK256 PUSH1 0x60 DUP5 ADD DUP4 MSTORE DUP1 SLOAD DUP5 MSTORE PUSH1 0x1 DUP2 ADD SLOAD SWAP2 DUP5 ADD SWAP2 SWAP1 SWAP2 MSTORE PUSH1 0x2 ADD SLOAD SWAP1 DUP3 ADD MSTORE SWAP1 POP DUP3 ISZERO DUP1 ISZERO SWAP1 PUSH2 0x603 JUMPI POP DUP3 PUSH1 0x2 DUP7 DUP7 PUSH1 0x40 MLOAD PUSH2 0x5E4 SWAP3 SWAP2 SWAP1 PUSH2 0x13A4 JUMP JUMPDEST SWAP1 DUP2 MSTORE PUSH1 0x40 DUP1 MLOAD PUSH1 0x20 SWAP3 DUP2 SWAP1 SUB DUP4 ADD SWAP1 KECCAK256 CALLER PUSH1 0x0 SWAP1 DUP2 MSTORE SWAP3 MSTORE SWAP1 KECCAK256 SLOAD LT ISZERO JUMPDEST PUSH2 0x628 JUMPI PUSH1 0x40 MLOAD PUSH3 0x461BCD PUSH1 0xE5 SHL DUP2 MSTORE PUSH1 0x4 ADD PUSH2 0x61F SWAP1 PUSH2 0x13B4 JUMP JUMPDEST PUSH1 0x40 MLOAD DUP1 SWAP2 SUB SWAP1 REVERT JUMPDEST PUSH1 0x0 PUSH1 0x64 DUP3 PUSH1 0x20 ADD MLOAD DUP6 PUSH2 0x63C SWAP2 SWAP1 PUSH2 0x13EE JUMP JUMPDEST PUSH2 0x646 SWAP2 SWAP1 PUSH2 0x140B JUMP JUMPDEST SWAP1 POP PUSH2 0x652 DUP2 DUP6 PUSH2 0x142D JUMP JUMPDEST SWAP3 POP DUP4 PUSH1 0x2 DUP8 DUP8 PUSH1 0x40 MLOAD PUSH2 0x667 SWAP3 SWAP2 SWAP1 PUSH2 0x13A4 JUMP JUMPDEST SWAP1 DUP2 MSTORE PUSH1 0x40 DUP1 MLOAD PUSH1 0x20 SWAP3 DUP2 SWAP1 SUB DUP4 ADD SWAP1 KECCAK256 CALLER PUSH1 0x0 SWAP1 DUP2 MSTORE SWAP3 MSTORE DUP2 KECCAK256 DUP1 SLOAD SWAP1 SWAP2 SWAP1 PUSH2 0x692 SWAP1 DUP5 SWAP1 PUSH2 0x142D JUMP JUMPDEST SWAP1 SWAP2 SSTORE POP POP PUSH1 0x40 MLOAD PUSH4 0xA9059CBB PUSH1 0xE0 SHL DUP2 MSTORE PUSH2 0xDEAD PUSH1 0x4 DUP3 ADD MSTORE PUSH1 0x24 DUP2 ADD DUP6 SWAP1 MSTORE PUSH32 0x0 PUSH1 0x1 PUSH1 0x1 PUSH1 0xA0 SHL SUB AND SWAP1 PUSH4 0xA9059CBB SWAP1 PUSH1 0x44 ADD PUSH1 0x20 PUSH1 0x40 MLOAD DUP1 DUP4 SUB DUP2 PUSH1 0x0 DUP8 GAS CALL ISZERO DUP1 ISZERO PUSH2 0x706 JUMPI RETURNDATASIZE PUSH1 0x0 DUP1 RETURNDATACOPY RETURNDATASIZE PUSH1 0x0 REVERT JUMPDEST POP POP POP POP PUSH1 0x40 MLOAD RETURNDATASIZE PUSH1 0x1F NOT PUSH1 0x1F DUP3 ADD AND DUP3 ADD DUP1 PUSH1 0x40 MSTORE POP DUP2 ADD SWAP1 PUSH2 0x72A SWAP2 SWAP1 PUSH2 0x1440 JUMP JUMPDEST POP PUSH1 0x40 MLOAD CALLER SWAP1 DUP5 ISZERO PUSH2 0x8FC MUL SWAP1 DUP6 SWAP1 PUSH1 0x0 DUP2 DUP2 DUP2 DUP6 DUP9 DUP9 CALL SWAP4 POP POP POP POP ISZERO DUP1 ISZERO PUSH2 0x758 JUMPI RETURNDATASIZE PUSH1 0x0 DUP1 RETURNDATACOPY RETURNDATASIZE PUSH1 0x0 REVERT JUMPDEST POP PUSH1 0x40 MLOAD CALLER SWAP1 PUSH2 0x76B SWAP1 DUP9 SWAP1 DUP9 SWAP1 PUSH2 0x13A4 JUMP JUMPDEST PUSH1 0x40 DUP1 MLOAD SWAP2 DUP3 SWAP1 SUB DUP3 KECCAK256 DUP8 DUP4 MSTORE PUSH1 0x20 DUP4 ADD DUP8 SWAP1 MSTORE SWAP2 PUSH32 0x1B3CFE7D4A17A7532B1805CAC487A7EA05B1A5C711B52E029FAF1BB5BDD1B666 SWAP2 ADD PUSH1 0x40 MLOAD DUP1 SWAP2 SUB SWAP1 LOG3 POP POP SWAP4 SWAP3 POP POP POP JUMP JUMPDEST PUSH1 0x0 DUP1 PUSH1 0x0 DUP1 PUSH1 0x0 DUP1 PUSH1 0x0 DUP1 PUSH1 0x0 PUSH1 0x1 DUP12 DUP12 PUSH1 0x40 MLOAD PUSH2 0x7D4 SWAP3 SWAP2 SWAP1 PUSH2 0x13A4 JUMP JUMPDEST SWAP1 DUP2 MSTORE PUSH1 0x40 DUP1 MLOAD SWAP2 DUP3 SWAP1 SUB PUSH1 0x20 SWAP1 DUP2 ADD DUP4 KECCAK256 PUSH1 0x60 DUP5 ADD DUP4 MSTORE DUP1 SLOAD DUP1 DUP6 MSTORE PUSH1 0x1 DUP1 DUP4 ADD SLOAD SWAP4 DUP7 ADD DUP5 SWAP1 MSTORE PUSH1 0x2 SWAP1 SWAP3 ADD SLOAD SWAP5 SWAP1 SWAP4 ADD DUP5 SWAP1 MSTORE PUSH1 0x0 SWAP13 POP DUP13 SWAP12 POP DUP12 SWAP11 POP DUP11 SWAP10 POP SWAP8 POP SWAP1 SWAP6 POP SWAP4 POP SWAP2 POP POP SWAP3 SWAP6 SWAP9 POP SWAP3 SWAP6 SWAP9 SWAP1 SWAP4 SWAP7 POP JUMP JUMPDEST PUSH2 0x836 PUSH2 0x1036 JUMP JUMPDEST PUSH2 0x840 PUSH1 0x0 PUSH2 0x1063 JUMP JUMPDEST JUMP JUMPDEST PUSH1 0x0 DUP1 PUSH1 0x1 DUP6 DUP6 PUSH1 0x40 MLOAD PUSH2 0x857 SWAP3 SWAP2 SWAP1 PUSH2 0x13A4 JUMP JUMPDEST SWAP1 DUP2 MSTORE PUSH1 0x40 DUP1 MLOAD PUSH1 0x20 SWAP3 DUP2 SWAP1 SUB DUP4 ADD DUP2 KECCAK256 PUSH1 0x60 DUP3 ADD DUP4 MSTORE DUP1 SLOAD DUP1 DUP4 MSTORE PUSH1 0x1 DUP3 ADD SLOAD SWAP5 DUP4 ADD SWAP5 SWAP1 SWAP5 MSTORE PUSH1 0x2 ADD SLOAD SWAP2 DUP2 ADD SWAP2 SWAP1 SWAP2 MSTORE SWAP2 POP TIMESTAMP LT ISZERO PUSH2 0x8C9 JUMPI PUSH1 0x40 MLOAD PUSH3 0x461BCD PUSH1 0xE5 SHL DUP2 MSTORE PUSH1 0x20 PUSH1 0x4 DUP3 ADD MSTORE PUSH1 0xB PUSH1 0x24 DUP3 ADD MSTORE PUSH11 0x1B9BDD081B585D1D5C9959 PUSH1 0xAA SHL PUSH1 0x44 DUP3 ADD MSTORE PUSH1 0x64 ADD PUSH2 0x61F JUMP JUMPDEST PUSH1 0x0 DUP4 GT DUP1 ISZERO PUSH2 0x906 JUMPI POP DUP3 PUSH1 0x2 DUP7 DUP7 PUSH1 0x40 MLOAD PUSH2 0x8E7 SWAP3 SWAP2 SWAP1 PUSH2 0x13A4 JUMP JUMPDEST SWAP1 DUP2 MSTORE PUSH1 0x40 DUP1 MLOAD PUSH1 0x20 SWAP3 DUP2 SWAP1 SUB DUP4 ADD SWAP1 KECCAK256 CALLER PUSH1 0x0 SWAP1 DUP2 MSTORE SWAP3 MSTORE SWAP1 KECCAK256 SLOAD LT ISZERO JUMPDEST PUSH2 0x922 JUMPI PUSH1 0x40 MLOAD PUSH3 0x461BCD PUSH1 0xE5 SHL DUP2 MSTORE PUSH1 0x4 ADD PUSH2 0x61F SWAP1 PUSH2 0x13B4 JUMP JUMPDEST PUSH1 0x64 DUP2 PUSH1 0x40 ADD MLOAD DUP5 PUSH2 0x934 SWAP2 SWAP1 PUSH2 0x13EE JUMP JUMPDEST PUSH2 0x93E SWAP2 SWAP1 PUSH2 0x140B JUMP JUMPDEST SWAP2 POP DUP3 PUSH1 0x2 DUP7 DUP7 PUSH1 0x40 MLOAD PUSH2 0x953 SWAP3 SWAP2 SWAP1 PUSH2 0x13A4 JUMP JUMPDEST SWAP1 DUP2 MSTORE PUSH1 0x40 DUP1 MLOAD PUSH1 0x20 SWAP3 DUP2 SWAP1 SUB DUP4 ADD SWAP1 KECCAK256 CALLER PUSH1 0x0 SWAP1 DUP2 MSTORE SWAP3 MSTORE DUP2 KECCAK256 DUP1 SLOAD SWAP1 SWAP2 SWAP1 PUSH2 0x97E SWAP1 DUP5 SWAP1 PUSH2 0x142D JUMP JUMPDEST SWAP1 SWAP2 SSTORE POP POP PUSH1 0x40 MLOAD PUSH4 0xA9059CBB PUSH1 0xE0 SHL DUP2 MSTORE PUSH2 0xDEAD PUSH1 0x4 DUP3 ADD MSTORE PUSH1 0x24 DUP2 ADD DUP5 SWAP1 MSTORE PUSH32 0x0 PUSH1 0x1 PUSH1 0x1 PUSH1 0xA0 SHL SUB AND SWAP1 PUSH4 0xA9059CBB SWAP1 PUSH1 0x44 ADD PUSH1 0x20 PUSH1 0x40 MLOAD DUP1 DUP4 SUB DUP2 PUSH1 0x0 DUP8 GAS CALL ISZERO DUP1 ISZERO PUSH2 0x9F2 JUMPI RETURNDATASIZE PUSH1 0x0 DUP1 RETURNDATACOPY RETURNDATASIZE PUSH1 0x0 REVERT JUMPDEST POP POP POP POP PUSH1 0x40 MLOAD RETURNDATASIZE PUSH1 0x1F NOT PUSH1 0x1F DUP3 ADD AND DUP3 ADD DUP1 PUSH1 0x40 MSTORE POP DUP2 ADD SWAP1 PUSH2 0xA16 SWAP2 SWAP1 PUSH2 0x1440 JUMP JUMPDEST POP PUSH1 0x40 MLOAD CALLER SWAP1 DUP4 ISZERO PUSH2 0x8FC MUL SWAP1 DUP5 SWAP1 PUSH1 0x0 DUP2 DUP2 DUP2 DUP6 DUP9 DUP9 CALL SWAP4 POP POP POP POP ISZERO DUP1 ISZERO PUSH2 0xA44 JUMPI RETURNDATASIZE PUSH1 0x0 DUP1 RETURNDATACOPY RETURNDATASIZE PUSH1 0x0 REVERT JUMPDEST POP PUSH1 0x40 MLOAD CALLER SWAP1 PUSH2 0xA57 SWAP1 DUP8 SWAP1 DUP8 SWAP1 PUSH2 0x13A4 JUMP JUMPDEST PUSH1 0x40 DUP1 MLOAD SWAP2 DUP3 SWAP1 SUB DUP3 KECCAK256 DUP7 DUP4 MSTORE PUSH1 0x20 DUP4 ADD DUP7 SWAP1 MSTORE SWAP2 PUSH32 0x6B7BEF7B51625FFDA642A0D7B6EDC9E976CFB79BA144D2B51E627988AF779F94 SWAP2 ADD PUSH1 0x40 MLOAD DUP1 SWAP2 SUB SWAP1 LOG3 POP SWAP4 SWAP3 POP POP POP JUMP JUMPDEST PUSH1 0x0 PUSH1 0x4 DUP4 DUP4 PUSH1 0x40 MLOAD PUSH2 0xAB3 SWAP3 SWAP2 SWAP1 PUSH2 0x13A4 JUMP JUMPDEST SWAP1 DUP2 MSTORE PUSH1 0x40 DUP1 MLOAD PUSH1 0x20 SWAP3 DUP2 SWAP1 SUB DUP4 ADD SWAP1 KECCAK256 CALLER PUSH1 0x0 SWAP1 DUP2 MSTORE SWAP3 MSTORE SWAP1 KECCAK256 SLOAD SWAP1 POP DUP1 PUSH2 0xB0B JUMPI PUSH1 0x40 MLOAD PUSH3 0x461BCD PUSH1 0xE5 SHL DUP2 MSTORE PUSH1 0x20 PUSH1 0x4 DUP3 ADD MSTORE PUSH1 0xA PUSH1 0x24 DUP3 ADD MSTORE PUSH10 0x6E6F2072657761726473 PUSH1 0xB0 SHL PUSH1 0x44 DUP3 ADD MSTORE PUSH1 0x64 ADD PUSH2 0x61F JUMP JUMPDEST PUSH1 0x0 PUSH1 0x4 DUP5 DUP5 PUSH1 0x40 MLOAD PUSH2 0xB1F SWAP3 SWAP2 SWAP1 PUSH2 0x13A4 JUMP JUMPDEST SWAP1 DUP2 MSTORE PUSH1 0x40 DUP1 MLOAD PUSH1 0x20 SWAP3 DUP2 SWAP1 SUB DUP4 ADD DUP2 KECCAK256 CALLER PUSH1 0x0 DUP2 DUP2 MSTORE SWAP2 SWAP1 SWAP5 MSTORE SWAP2 SWAP1 SWAP2 KECCAK256 SWAP3 SWAP1 SWAP3 SSTORE PUSH4 0xA9059CBB PUSH1 0xE0 SHL DUP3 MSTORE PUSH1 0x4 DUP3 ADD MSTORE PUSH1 0x24 DUP2 ADD DUP3 SWAP1 MSTORE PUSH1 0x1 PUSH1 0x1 PUSH1 0xA0 SHL SUB PUSH32 0x0 AND SWAP1 PUSH4 0xA9059CBB SWAP1 PUSH1 0x44 ADD PUSH1 0x20 PUSH1 0x40 MLOAD DUP1 DUP4 SUB DUP2 PUSH1 0x0 DUP8 GAS CALL ISZERO DUP1 ISZERO PUSH2 0xBAB JUMPI RETURNDATASIZE PUSH1 0x0 DUP1 RETURNDATACOPY RETURNDATASIZE PUSH1 0x0 REVERT JUMPDEST POP POP POP POP PUSH1 0x40 MLOAD RETURNDATASIZE PUSH1 0x1F NOT PUSH1 0x1F DUP3 ADD AND DUP3 ADD DUP1 PUSH1 0x40 MSTORE POP DUP2 ADD SWAP1 PUSH2 0xBCF SWAP2 SWAP1 PUSH2 0x1440 JUMP JUMPDEST POP PUSH1 0x40 MLOAD CALLER SWAP1 PUSH2 0xBE2 SWAP1 DUP6 SWAP1 DUP6 SWAP1 PUSH2 0x13A4 JUMP JUMPDEST PUSH1 0x40 MLOAD SWAP1 DUP2 SWAP1 SUB DUP2 KECCAK256 DUP4 DUP3 MSTORE SWAP1 PUSH32 0xA4A7616014DCA5D8165351425CC72D1016C2C06B97F653F4B4EF3A64B6E01EF8 SWAP1 PUSH1 0x20 ADD JUMPDEST PUSH1 0x40 MLOAD DUP1 SWAP2 SUB SWAP1 LOG3 POP POP POP JUMP JUMPDEST PUSH1 0x0 DUP2 GT PUSH2 0xC5D JUMPI PUSH1 0x40 MLOAD PUSH3 0x461BCD PUSH1 0xE5 SHL DUP2 MSTORE PUSH1 0x20 PUSH1 0x4 DUP3 ADD MSTORE PUSH1 0x8 PUSH1 0x24 DUP3 ADD MSTORE PUSH8 0x616D6F756E743D3 PUSH1 0xC4 SHL PUSH1 0x44 DUP3 ADD MSTORE PUSH1 0x64 ADD PUSH2 0x61F JUMP JUMPDEST PUSH1 0x40 MLOAD PUSH4 0x23B872DD PUSH1 0xE0 SHL DUP2 MSTORE CALLER PUSH1 0x4 DUP3 ADD MSTORE ADDRESS PUSH1 0x24 DUP3 ADD MSTORE PUSH1 0x44 DUP2 ADD DUP3 SWAP1 MSTORE PUSH32 0x0 PUSH1 0x1 PUSH1 0x1 PUSH1 0xA0 SHL SUB AND SWAP1 PUSH4 0x23B872DD SWAP1 PUSH1 0x64 ADD PUSH1 0x20 PUSH1 0x40 MLOAD DUP1 DUP4 SUB DUP2 PUSH1 0x0 DUP8 GAS CALL ISZERO DUP1 ISZERO PUSH2 0xCD0 JUMPI RETURNDATASIZE PUSH1 0x0 DUP1 RETURNDATACOPY RETURNDATASIZE PUSH1 0x0 REVERT JUMPDEST POP POP POP POP PUSH1 0x40 MLOAD RETURNDATASIZE PUSH1 0x1F NOT PUSH1 0x1F DUP3 ADD AND DUP3 ADD DUP1 PUSH1 0x40 MSTORE POP DUP2 ADD SWAP1 PUSH2 0xCF4 SWAP2 SWAP1 PUSH2 0x1440 JUMP JUMPDEST POP DUP1 PUSH1 0x2 DUP5 DUP5 PUSH1 0x40 MLOAD PUSH2 0xD08 SWAP3 SWAP2 SWAP1 PUSH2 0x13A4 JUMP JUMPDEST SWAP1 DUP2 MSTORE PUSH1 0x40 DUP1 MLOAD PUSH1 0x20 SWAP3 DUP2 SWAP1 SUB DUP4 ADD SWAP1 KECCAK256 CALLER PUSH1 0x0 SWAP1 DUP2 MSTORE SWAP3 MSTORE DUP2 KECCAK256 DUP1 SLOAD SWAP1 SWAP2 SWAP1 PUSH2 0xD33 SWAP1 DUP5 SWAP1 PUSH2 0x1462 JUMP JUMPDEST SWAP3 POP POP DUP2 SWAP1 SSTORE POP DUP1 PUSH1 0x3 DUP5 DUP5 PUSH1 0x40 MLOAD PUSH2 0xD4D SWAP3 SWAP2 SWAP1 PUSH2 0x13A4 JUMP JUMPDEST SWAP1 DUP2 MSTORE PUSH1 0x40 DUP1 MLOAD PUSH1 0x20 SWAP3 DUP2 SWAP1 SUB DUP4 ADD SWAP1 KECCAK256 CALLER PUSH1 0x0 SWAP1 DUP2 MSTORE SWAP3 MSTORE DUP2 KECCAK256 DUP1 SLOAD SWAP1 SWAP2 SWAP1 PUSH2 0xD78 SWAP1 DUP5 SWAP1 PUSH2 0x1462 JUMP JUMPDEST SWAP1 SWAP2 SSTORE POP PUSH2 0xD89 SWAP1 POP PUSH1 0x64 DUP3 PUSH2 0x140B JUMP JUMPDEST PUSH1 0x4 DUP5 DUP5 PUSH1 0x40 MLOAD PUSH2 0xD9B SWAP3 SWAP2 SWAP1 PUSH2 0x13A4 JUMP JUMPDEST SWAP1 DUP2 MSTORE PUSH1 0x40 DUP1 MLOAD PUSH1 0x20 SWAP3 DUP2 SWAP1 SUB DUP4 ADD SWAP1 KECCAK256 CALLER PUSH1 0x0 SWAP1 DUP2 MSTORE SWAP3 MSTORE DUP2 KECCAK256 DUP1 SLOAD SWAP1 SWAP2 SWAP1 PUSH2 0xDC6 SWAP1 DUP5 SWAP1 PUSH2 0x1462 JUMP JUMPDEST SWAP1 SWAP2 SSTORE POP POP PUSH1 0x40 MLOAD CALLER SWAP1 PUSH2 0xDDD SWAP1 DUP6 SWAP1 DUP6 SWAP1 PUSH2 0x13A4 JUMP JUMPDEST PUSH1 0x40 MLOAD SWAP1 DUP2 SWAP1 SUB DUP2 KECCAK256 DUP4 DUP3 MSTORE SWAP1 PUSH32 0xB28DEAD8027F1E81117E29275C8111D4FEF0DBAFC7B4E32A0952FD186EEB67A5 SWAP1 PUSH1 0x20 ADD PUSH2 0xC15 JUMP JUMPDEST PUSH1 0x0 PUSH1 0x2 DUP5 DUP5 PUSH1 0x40 MLOAD PUSH2 0x550 SWAP3 SWAP2 SWAP1 PUSH2 0x13A4 JUMP JUMPDEST PUSH1 0x0 DUP2 GT DUP1 ISZERO PUSH2 0xE65 JUMPI POP DUP1 PUSH1 0x3 DUP5 DUP5 PUSH1 0x40 MLOAD PUSH2 0xE46 SWAP3 SWAP2 SWAP1 PUSH2 0x13A4 JUMP JUMPDEST SWAP1 DUP2 MSTORE PUSH1 0x40 DUP1 MLOAD PUSH1 0x20 SWAP3 DUP2 SWAP1 SUB DUP4 ADD SWAP1 KECCAK256 CALLER PUSH1 0x0 SWAP1 DUP2 MSTORE SWAP3 MSTORE SWAP1 KECCAK256 SLOAD LT ISZERO JUMPDEST PUSH2 0xE81 JUMPI PUSH1 0x40 MLOAD PUSH3 0x461BCD PUSH1 0xE5 SHL DUP2 MSTORE PUSH1 0x4 ADD PUSH2 0x61F SWAP1 PUSH2 0x13B4 JUMP JUMPDEST DUP1 PUSH1 0x3 DUP5 DUP5 PUSH1 0x40 MLOAD PUSH2 0xE94 SWAP3 SWAP2 SWAP1 PUSH2 0x13A4 JUMP JUMPDEST SWAP1 DUP2 MSTORE PUSH1 0x40 DUP1 MLOAD PUSH1 0x20 SWAP3 DUP2 SWAP1 SUB DUP4 ADD SWAP1 KECCAK256 CALLER PUSH1 0x0 SWAP1 DUP2 MSTORE SWAP3 MSTORE DUP2 KECCAK256 DUP1 SLOAD SWAP1 SWAP2 SWAP1 PUSH2 0xEBF SWAP1 DUP5 SWAP1 PUSH2 0x142D JUMP JUMPDEST SWAP3 POP POP DUP2 SWAP1 SSTORE POP DUP1 PUSH1 0x2 DUP5 DUP5 PUSH1 0x40 MLOAD PUSH2 0xED9 SWAP3 SWAP2 SWAP1 PUSH2 0x13A4 JUMP JUMPDEST SWAP1 DUP2 MSTORE PUSH1 0x40 DUP1 MLOAD PUSH1 0x20 SWAP3 DUP2 SWAP1 SUB DUP4 ADD SWAP1 KECCAK256 CALLER PUSH1 0x0 SWAP1 DUP2 MSTORE SWAP3 MSTORE DUP2 KECCAK256 DUP1 SLOAD SWAP1 SWAP2 SWAP1 PUSH2 0xF04 SWAP1 DUP5 SWAP1 PUSH2 0x142D JUMP JUMPDEST SWAP1 SWAP2 SSTORE POP POP PUSH1 0x40 MLOAD PUSH4 0xA9059CBB PUSH1 0xE0 SHL DUP2 MSTORE CALLER PUSH1 0x4 DUP3 ADD MSTORE PUSH1 0x24 DUP2 ADD DUP3 SWAP1 MSTORE PUSH32 0x0 PUSH1 0x1 PUSH1 0x1 PUSH1 0xA0 SHL SUB AND SWAP1 PUSH4 0xA9059CBB SWAP1 PUSH1 0x44 ADD PUSH1 0x20 PUSH1 0x40 MLOAD DUP1 DUP4 SUB DUP2 PUSH1 0x0 DUP8 GAS CALL ISZERO DUP1 ISZERO PUSH2 0xF76 JUMPI RETURNDATASIZE PUSH1 0x0 DUP1 RETURNDATACOPY RETURNDATASIZE PUSH1 0x0 REVERT JUMPDEST POP POP POP POP PUSH1 0x40 MLOAD RETURNDATASIZE PUSH1 0x1F NOT PUSH1 0x1F DUP3 ADD AND DUP3 ADD DUP1 PUSH1 0x40 MSTORE POP DUP2 ADD SWAP1 PUSH2 0xF9A SWAP2 SWAP1 PUSH2 0x1440 JUMP JUMPDEST POP PUSH1 0x40 MLOAD CALLER SWAP1 PUSH2 0xFAD SWAP1 DUP6 SWAP1 DUP6 SWAP1 PUSH2 0x13A4 JUMP JUMPDEST PUSH1 0x40 MLOAD SWAP1 DUP2 SWAP1 SUB DUP2 KECCAK256 DUP4 DUP3 MSTORE SWAP1 PUSH32 0xABFF4485ADC7088E008D091C07744B6153E65E8F7CE2728FE3C3DBD95F743FD1 SWAP1 PUSH1 0x20 ADD PUSH2 0xC15 JUMP JUMPDEST PUSH1 0x0 PUSH1 0x4 DUP5 DUP5 PUSH1 0x40 MLOAD PUSH2 0x550 SWAP3 SWAP2 SWAP1 PUSH2 0x13A4 JUMP JUMPDEST PUSH2 0x1000 PUSH2 0x1036 JUMP JUMPDEST PUSH1 0x1 PUSH1 0x1 PUSH1 0xA0 SHL SUB DUP2 AND PUSH2 0x102A JUMPI PUSH1 0x40 MLOAD PUSH4 0x1E4FBDF7 PUSH1 0xE0 SHL DUP2 MSTORE PUSH1 0x0 PUSH1 0x4 DUP3 ADD MSTORE PUSH1 0x24 ADD PUSH2 0x61F JUMP JUMPDEST PUSH2 0x1033 DUP2 PUSH2 0x1063 JUMP JUMPDEST POP JUMP JUMPDEST PUSH1 0x0 SLOAD PUSH1 0x1 PUSH1 0x1 PUSH1 0xA0 SHL SUB AND CALLER EQ PUSH2 0x840 JUMPI PUSH1 0x40 MLOAD PUSH4 0x118CDAA7 PUSH1 0xE0 SHL DUP2 MSTORE CALLER PUSH1 0x4 DUP3 ADD MSTORE PUSH1 0x24 ADD PUSH2 0x61F JUMP JUMPDEST PUSH1 0x0 DUP1 SLOAD PUSH1 0x1 PUSH1 0x1 PUSH1 0xA0 SHL SUB DUP4 DUP2 AND PUSH1 0x1 PUSH1 0x1 PUSH1 0xA0 SHL SUB NOT DUP4 AND DUP2 OR DUP5 SSTORE PUSH1 0x40 MLOAD SWAP2 SWAP1 SWAP3 AND SWAP3 DUP4 SWAP2 PUSH32 0x8BE0079C531659141344CD1FD0A4F28419497F9722A3DAAFE3B4186F6B6457E0 SWAP2 SWAP1 LOG3 POP POP JUMP JUMPDEST PUSH1 0x0 DUP1 DUP4 PUSH1 0x1F DUP5 ADD SLT PUSH2 0x10C5 JUMPI PUSH1 0x0 DUP1 REVERT JUMPDEST POP DUP2 CALLDATALOAD PUSH8 0xFFFFFFFFFFFFFFFF DUP2 GT ISZERO PUSH2 0x10DD JUMPI PUSH1 0x0 DUP1 REVERT JUMPDEST PUSH1 0x20 DUP4 ADD SWAP2 POP DUP4 PUSH1 0x20 DUP3 DUP6 ADD ADD GT ISZERO PUSH2 0x10F5 JUMPI PUSH1 0x0 DUP1 REVERT JUMPDEST SWAP3 POP SWAP3 SWAP1 POP JUMP JUMPDEST PUSH1 0x0 DUP1 PUSH1 0x0 DUP1 PUSH1 0x0 PUSH1 0x80 DUP7 DUP9 SUB SLT ISZERO PUSH2 0x1114 JUMPI PUSH1 0x0 DUP1 REVERT JUMPDEST DUP6 CALLDATALOAD PUSH8 0xFFFFFFFFFFFFFFFF DUP2 GT ISZERO PUSH2 0x112B JUMPI PUSH1 0x0 DUP1 REVERT JUMPDEST PUSH2 0x1137 DUP9 DUP3 DUP10 ADD PUSH2 0x10B3 JUMP JUMPDEST SWAP1 SWAP10 SWAP1 SWAP9 POP PUSH1 0x20 DUP9 ADD CALLDATALOAD SWAP8 PUSH1 0x40 DUP2 ADD CALLDATALOAD SWAP8 POP PUSH1 0x60 ADD CALLDATALOAD SWAP6 POP SWAP4 POP POP POP POP JUMP JUMPDEST PUSH4 0x4E487B71 PUSH1 0xE0 SHL PUSH1 0x0 MSTORE PUSH1 0x41 PUSH1 0x4 MSTORE PUSH1 0x24 PUSH1 0x0 REVERT JUMPDEST PUSH1 0x0 DUP3 PUSH1 0x1F DUP4 ADD SLT PUSH2 0x117D JUMPI PUSH1 0x0 DUP1 REVERT JUMPDEST DUP2 CALLDATALOAD PUSH8 0xFFFFFFFFFFFFFFFF DUP1 DUP3 GT ISZERO PUSH2 0x1198 JUMPI PUSH2 0x1198 PUSH2 0x1156 JUMP JUMPDEST PUSH1 0x40 MLOAD PUSH1 0x1F DUP4 ADD PUSH1 0x1F NOT SWAP1 DUP2 AND PUSH1 0x3F ADD AND DUP2 ADD SWAP1 DUP3 DUP3 GT DUP2 DUP4 LT OR ISZERO PUSH2 0x11C0 JUMPI PUSH2 0x11C0 PUSH2 0x1156 JUMP JUMPDEST DUP2 PUSH1 0x40 MSTORE DUP4 DUP2 MSTORE DUP7 PUSH1 0x20 DUP6 DUP9 ADD ADD GT ISZERO PUSH2 0x11D9 JUMPI PUSH1 0x0 DUP1 REVERT JUMPDEST DUP4 PUSH1 0x20 DUP8 ADD PUSH1 0x20 DUP4 ADD CALLDATACOPY PUSH1 0x0 PUSH1 0x20 DUP6 DUP4 ADD ADD MSTORE DUP1 SWAP5 POP POP POP POP POP SWAP3 SWAP2 POP POP JUMP JUMPDEST DUP1 CALLDATALOAD PUSH1 0x1 PUSH1 0x1 PUSH1 0xA0 SHL SUB DUP2 AND DUP2 EQ PUSH2 0x1210 JUMPI PUSH1 0x0 DUP1 REVERT JUMPDEST SWAP2 SWAP1 POP JUMP JUMPDEST PUSH1 0x0 DUP1 PUSH1 0x40 DUP4 DUP6 SUB SLT ISZERO PUSH2 0x1228 JUMPI PUSH1 0x0 DUP1 REVERT JUMPDEST DUP3 CALLDATALOAD PUSH8 0xFFFFFFFFFFFFFFFF DUP2 GT ISZERO PUSH2 0x123F JUMPI PUSH1 0x0 DUP1 REVERT JUMPDEST PUSH2 0x124B DUP6 DUP3 DUP7 ADD PUSH2 0x116C JUMP JUMPDEST SWAP3 POP POP PUSH2 0x125A PUSH1 0x20 DUP5 ADD PUSH2 0x11F9 JUMP JUMPDEST SWAP1 POP SWAP3 POP SWAP3 SWAP1 POP JUMP JUMPDEST PUSH1 0x0 DUP1 PUSH1 0x0 PUSH1 0x40 DUP5 DUP7 SUB SLT ISZERO PUSH2 0x1278 JUMPI PUSH1 0x0 DUP1 REVERT JUMPDEST DUP4 CALLDATALOAD PUSH8 0xFFFFFFFFFFFFFFFF DUP2 GT ISZERO PUSH2 0x128F JUMPI PUSH1 0x0 DUP1 REVERT JUMPDEST PUSH2 0x129B DUP7 DUP3 DUP8 ADD PUSH2 0x10B3 JUMP JUMPDEST SWAP1 SWAP5 POP SWAP3 POP PUSH2 0x12AE SWAP1 POP PUSH1 0x20 DUP6 ADD PUSH2 0x11F9 JUMP JUMPDEST SWAP1 POP SWAP3 POP SWAP3 POP SWAP3 JUMP JUMPDEST PUSH1 0x0 DUP1 PUSH1 0x0 PUSH1 0x40 DUP5 DUP7 SUB SLT ISZERO PUSH2 0x12CC JUMPI PUSH1 0x0 DUP1 REVERT JUMPDEST DUP4 CALLDATALOAD PUSH8 0xFFFFFFFFFFFFFFFF DUP2 GT ISZERO PUSH2 0x12E3 JUMPI PUSH1 0x0 DUP1 REVERT JUMPDEST PUSH2 0x12EF DUP7 DUP3 DUP8 ADD PUSH2 0x10B3 JUMP JUMPDEST SWAP1 SWAP8 SWAP1 SWAP7 POP PUSH1 0x20 SWAP6 SWAP1 SWAP6 ADD CALLDATALOAD SWAP5 SWAP4 POP POP POP POP JUMP JUMPDEST PUSH1 0x0 DUP1 PUSH1 0x20 DUP4 DUP6 SUB SLT ISZERO PUSH2 0x1316 JUMPI PUSH1 0x0 DUP1 REVERT JUMPDEST DUP3 CALLDATALOAD PUSH8 0xFFFFFFFFFFFFFFFF DUP2 GT ISZERO PUSH2 0x132D JUMPI PUSH1 0x0 DUP1 REVERT JUMPDEST PUSH2 0x1339 DUP6 DUP3 DUP7 ADD PUSH2 0x10B3 JUMP JUMPDEST SWAP1 SWAP7 SWAP1 SWAP6 POP SWAP4 POP POP POP POP JUMP JUMPDEST PUSH1 0x0 PUSH1 0x20 DUP3 DUP5 SUB SLT ISZERO PUSH2 0x1357 JUMPI PUSH1 0x0 DUP1 REVERT JUMPDEST DUP2 CALLDATALOAD PUSH8 0xFFFFFFFFFFFFFFFF DUP2 GT ISZERO PUSH2 0x136E JUMPI PUSH1 0x0 DUP1 REVERT JUMPDEST PUSH2 0x137A DUP5 DUP3 DUP6 ADD PUSH2 0x116C JUMP JUMPDEST SWAP5 SWAP4 POP POP POP POP JUMP JUMPDEST PUSH1 0x0 PUSH1 0x20 DUP3 DUP5 SUB SLT ISZERO PUSH2 0x1394 JUMPI PUSH1 0x0 DUP1 REVERT JUMPDEST PUSH2 0x139D DUP3 PUSH2 0x11F9 JUMP JUMPDEST SWAP4 SWAP3 POP POP POP JUMP JUMPDEST DUP2 DUP4 DUP3 CALLDATACOPY PUSH1 0x0 SWAP2 ADD SWAP1 DUP2 MSTORE SWAP2 SWAP1 POP JUMP JUMPDEST PUSH1 0x20 DUP1 DUP3 MSTORE PUSH1 0xA SWAP1 DUP3 ADD MSTORE PUSH10 0x18985908185B5BDD5B9D PUSH1 0xB2 SHL PUSH1 0x40 DUP3 ADD MSTORE PUSH1 0x60 ADD SWAP1 JUMP JUMPDEST PUSH4 0x4E487B71 PUSH1 0xE0 SHL PUSH1 0x0 MSTORE PUSH1 0x11 PUSH1 0x4 MSTORE PUSH1 0x24 PUSH1 0x0 REVERT JUMPDEST DUP1 DUP3 MUL DUP2 ISZERO DUP3 DUP3 DIV DUP5 EQ OR PUSH2 0x1405 JUMPI PUSH2 0x1405 PUSH2 0x13D8 JUMP JUMPDEST SWAP3 SWAP2 POP POP JUMP JUMPDEST PUSH1 0x0 DUP3 PUSH2 0x1428 JUMPI PUSH4 0x4E487B71 PUSH1 0xE0 SHL PUSH1 0x0 MSTORE PUSH1 0x12 PUSH1 0x4 MSTORE PUSH1 0x24 PUSH1 0x0 REVERT JUMPDEST POP DIV SWAP1 JUMP JUMPDEST DUP2 DUP2 SUB DUP2 DUP2 GT ISZERO PUSH2 0x1405 JUMPI PUSH2 0x1405 PUSH2 0x13D8 JUMP JUMPDEST PUSH1 0x0 PUSH1 0x20 DUP3 DUP5 SUB SLT ISZERO PUSH2 0x1452 JUMPI PUSH1 0x0 DUP1 REVERT JUMPDEST DUP2 MLOAD DUP1 ISZERO ISZERO DUP2 EQ PUSH2 0x139D JUMPI PUSH1 0x0 DUP1 REVERT JUMPDEST DUP1 DUP3 ADD DUP1 DUP3 GT ISZERO PUSH2 0x1405 JUMPI PUSH2 0x1405 PUSH2 0x13D8 JUMP INVALID LOG2 PUSH5 0x6970667358 0x22 SLT KECCAK256 0xB7 0xC 0x26 0xB9 POP RETURNDATACOPY 0xB3 CHAINID 0xE2 DUP14 NOT 0xB9 0xEE 0xB1 PUSH5 0xE91DB6434D 0xC8 0xC5 0xC3 0xEA PUSH31 0x50C69E4D87C98064736F6C6343000814003300000000000000000000000000 "},"methodIdentifiers":{"balances(string,address)":"8892ebce","claimAssetYield(string)":"b64a202e","configureAsset(string,uint256,uint256,uint256)":"073171aa","earlyCashOut(string,uint256)":"6837e0f9","getAssetDetails(string)":"68fbe23e","getAssetRewards(string,address)":"ec47bfd7","getStakedAssetBalance(string,address)":"620b7ef5","getUserAssetBalance(string,address)":"dc442d5c","metas(string)":"b5ebff27","owner()":"8da5cb5b","redeem(string,uint256)":"b1b86b13","renounceOwnership()":"715018a6","rewards(string,address)":"eb042ac0","rwa()":"95e4b251","stakeAsset(string,uint256)":"daeff653","staked(string,address)":"2714288d","transferOwnership(address)":"f2fde38b","unstakeAsset(string,uint256)":"e39aabc1"}}}}}